:020000040800F2
:10000000284600203D0200081D5C00081F5C000817
:10001000215C0008235C0008255C0008000000004B
:10002000000000000000000000000000A501000822
:10003000275C000800000000E90100089919000889
:10004000570200085702000857020008570200082C
:10005000570200085702000857020008570200081C
:10006000570200085702000857020008570200080C
:1000700057020008570200085702000857020008FC
:1000800057020008570200085702000857020008EC
:1000900057020008570200085702000857020008DC
:1000A00057020008570200085702000857020008CC
:1000B000570200086F510008570200085702000855
:1000C00057020008570200085702000857020008AC
:1000D00057020008E91A00085702000857020008F2
:1000E00057020008570200085702000800F002F803
:1000F00000F048F80AA090E8000C82448344AAF17A
:100100000107DA4501D100F03DF8AFF2090EBAE877
:100110000F0013F0010F18BFFB1A43F0010318473B
:10012000C4710000E4710000103A24BF78C878C19F
:10013000FAD8520724BF30C830C144BF04680C60ED
:10014000704700000023002400250026103A28BF35
:1001500078C1FBD8520728BF30C148BF0B60704739
:10016000642905F05987752905F05687632906F03B
:100170008E81732906F09381002070471FB51FBD43
:1001800010B510BD06F0FEF91146FFF7F7FF05F0B8
:1001900005FD06F01CFA03B4FFF7F2FF03BC01F003
:1001A0004DFC0000224B19680868B0E8F00F80F39E
:1001B0000988BFF36F8F4FF0000080F311884EF075
:1001C0000D0E70470000000006480068006880F3CC
:1001D000088862B661B6BFF34F8FBFF36F8F00DF41
:1001E00000BF00BF08ED00E0EFF30980BFF36F8FA1
:1001F0000F4B1A6820E9F00F106008B54FF050005F
:1002000080F31188BFF34F8FBFF36F8F03F09CF81B
:100210004FF0000080F31188BDE8084019680868B5
:10022000B0E8F00F80F30988BFF36F8F704700BF0D
:100230001C000020EFF3058070470000094880474C
:1002400009480047FEE7FEE7FEE7FEE7FEE7FEE7B8
:10025000FEE7FEE7FEE7FEE704480549054A064BD0
:1002600070470000C95C0008ED000008284000202D
:100270002846002028420020284200202849084320
:1002800028490860704770B50F23C47801780122AF
:10029000F4B1244C2468457804F4E064C4F5E064C7
:1002A000240AC4F10406E3408478B5401C402C4382
:1002B00001F1E021230181F80034007800F01F01F2
:1002C0008A404009800000F1E020C0F8002170BDA4
:1002D00001F01F0082404809800000F1E020C0F8D2
:1002E000802170BD104A114001430E48001F01607B
:1002F00070470C4A121D0029116801D0014300E02B
:100300008143116070474FF0E0210428086903D051
:1003100020F004000861704740F00400FAE7000094
:100320000000FA050CED00E080FFFF1FC54910B585
:10033000884202D1012144150AE0C349884202D112
:100340000121041504E0C14988420AD10121CC03EE
:10035000204600F0D6FB2046BDE81040002100F00A
:10036000D0BB10BD10B54268B94B0C791A400B6870
:1003700042EA0422134343608368B64A1340D1E93A
:10038000024222434C7943EA44031A438260C26A20
:10039000097C22F47002491EC9B242EA0151C162CD
:1003A00010BD00210160017141718160C1600121B6
:1003B000017470470029816802D041F0010101E019
:1003C00021F00101816070470029816802D041F469
:1003D000807101E021F4807181607047002A4268D9
:1003E000C9B201D00A4300E08A4342607047816885
:1003F00041F00801816070470146002089680907C3
:1004000000D501207047816841F004018160704788
:10041000014600208968490700D50120704700295E
:10042000816802D041F4A00101E021F4A0018160C3
:100430007047014600208968490200D501207047B5
:100440004268491E22F4604242EA413141607047ED
:100450000029416802D041F4006101E021F400610B
:100460004160704770B5072409290AD9C568A1F110
:100470000A0606EB4606B440A543B3401D43C560DB
:1004800007E0056901EB4106B440A543B3401D43B5
:1004900005611F23072A09D2446B521E02EB820218
:1004A00093409C4391400C43446370BD0D2A09D294
:1004B000046BD21F02EB820293409C4391400C4399
:1004C000046370BDC46A0D3A02EB820293409C4300
:1004D00091400C43C46270BD0029816802D041F490
:1004E000801101E021F4801181607047C06C80B2FE
:1004F000704754484C30006870470029416802D06A
:1005000041F4806101E021F480614160704700297D
:10051000416802D041F4805101E021F480514160F2
:100520007047826822F4E0420A43826070470029E3
:10053000816802D041F4004101E021F40041816072
:1005400070470029816802D041F4021101E021F4D2
:10055000021181607047014600208968890200D538
:100560000120704770B5072409290AD9C568A1F18F
:100570000A0606EB4606B440A543B3401D43C560DA
:1005800007E0056901EB4106B440A543B3401D43B4
:100590000561836BC3F30154121B921C02EB8204AE
:1005A0001F22A2409343A1400B43836370BD826B23
:1005B000491E22F4401242EA01518163704708B596
:1005C00008440090026008BD08B508442830009037
:1005D000006880B208BD42681F4B1A400A4342605F
:1005E0007047416282627047426822F01F020A43EC
:1005F00042607047134908310028086802D040F46F
:10060000000001E020F4000008607047024600206E
:1006100012680A4200D001207047C9430160704748
:1006200010B50246002054680B0AC9B20C4011688C
:10063000194202D0002C00D0012010BD6FEA112118
:10064000016070470024014000280140003C014047
:10065000FFFEF0FFFDF7F1FFFFFD3FFF914910B5F1
:10066000884206D10121042000F04BFA0021042029
:100670003BE08D49884206D10121082000F041FA73
:100680000021082031E08949884206D1012110204B
:1006900000F037FA0021102027E08549884206D172
:1006A0000121202000F02DFA002120201DE08149A9
:1006B000884206D10121402000F023FA0021402089
:1006C00013E07D49884206D10121802000F019FA0B
:1006D0000021802009E0794988420AD1841501214E
:1006E000204600F00EFA00212046BDE8104000F040
:1006F00008BA10BD10B50121084600F002FA002129
:10070000BDE81040012000F0FCB9F0B5CA78002522
:1007100002F00F03D20601D58A7813430A784FF00E
:100720000F0E12F0FF0F4FF001021DD0D0F8004065
:100730000F8802FA05F63740B74211D14FEA850C0F
:100740000EFA0CF724EA070703FA0CF43C43CF78BF
:10075000282F02D0482F02D002E0466100E0066157
:100760006D1C082DE4D304600C88FF2C1ED944684E
:100770005FF0000606F1080702FA07F50F882F4020
:10078000AF420FD14FEA860C0EFA0CF7BC4303FAC6
:100790000CF73C43CF78282F00D14561CF78482F04
:1007A00000D10561761C082EE4D34460F0BD4FF6FD
:1007B000FF710180022181700421C17070470246DF
:1007C000002092680A4200D001207047806880B201
:1007D000704702460020D2680A4200D001207047CC
:1007E000C06880B2704701617047416170470AB1CB
:1007F0000161704741617047C160704741F48032C8
:100800008261816182618169806970472C4B10B57A
:100810001A684FF68074224042EA001008431860BC
:1008200010BD2849C8617047F0B5254C002801DA91
:10083000E36900E06368420D120185B2C0F301571D
:100840009540C0F30346032F05D0C2020AD5032208
:10085000B240934307E023F07062636823F0706353
:10086000636002E0AB4343F0706201B12A430028A9
:1008700001DAE261F0BD6260F0BD10B58A0721F0D7
:1008800003040F49130F21440F228C689A409443AC
:100890008C608A68984002438A6010BD0949C1F89B
:1008A000DC00704700080140000C014000100140CE
:1008B0000014014000180140001C014000200140CC
:1008C0000000014000002042A448016841F00101FD
:1008D00001604168A24A114041600168A14A11408B
:1008E0000160016821F480210160416821F4FE016A
:1008F00041604FF41F018160704798490A6822F4F3
:1009000080320A600A6822F480220A60B0F5803FD3
:1009100007D0B0F5802F03D1086840F4A02008600C
:100920007047086840F48030F9E702460020530918
:100930008A49012B0AD0022B0AD0496A02F01F0211
:10094000012393400B4200D0012070470968F5E76E
:10095000096AF3E718B500204FF4A0640090312035
:10096000FFF7E3FF0099491C0091A14201D0002844
:10097000F5D03120FFF7D9FF002800D0012018BDA5
:1009800076490A6822F0F80242EAC000086070471F
:10099000754908607047714A5368084323F47C1313
:1009A0001843506070477049086670476B4A516839
:1009B00021F003010143516070476848406800F02E
:1009C0000C007047654A516821F0F0010143516005
:1009D0007047624A516821F4E061014351607047F9
:1009E0005E494A6822F4605242EAC000486070479B
:1009F0005A4A0029517A01D0014300E081435172E3
:100A000070475949C1F8D8007047544A516821F4D9
:100A100040410143516070475049002281F8202035
:100A200081F82020012802D0042802D1052081F875
:100A3000200070474D490860704748490A6A0243E0
:100A40000A627047494944390860704730B54349E4
:100A50004A6812F00C03464A03D0042B01D0082B3D
:100A600021D002604A680F23424C03EA1212A35CB1
:100A70000268DA4042604B68072505EA1323E35C0D
:100A800022FA03F383604B6805EAD323E35CDA4080
:100A9000C2604968032303EA9131231F595CB2FB0A
:100AA000F1F1016130BD4A684B6802F470124FF0F9
:100AB000020413F4803F04EB924202D04B689B0384
:100AC00001D52D4B00E02A4B5A43CAE7234A00299F
:100AD000516901D0014300E08143516170471F4AD1
:100AE0000029916901D0014300E081439161704781
:100AF0001A4A0029D16901D0014300E08143D16144
:100B00007047164A0029D16801D0014300E08143B3
:100B1000D1607047114A0029116901D0014300E0FA
:100B200081431161704711494039086070470E498F
:100B3000C86470470949C87170470848416A41F064
:100B4000807141627047054A0146002092680A425E
:100B500000D00120704701498872704700100240A0
:100B60000000FFF8FFFFF6FE000042428004424210
:100B700000127A000400002000093D00F94910B578
:100B8000884202D10121C41486E0B0F1804F09D01F
:100B9000F54988420DD101210220FFF7BBFF00215A
:100BA000022064E001210846FFF7B4FF0021012084
:100BB0005DE0EE49884206D101210420FFF7AAFF3B
:100BC0000021042053E0EA49884206D1012108208F
:100BD000FFF7A0FF0021082049E0E649884206D13E
:100BE00001211020FFF796FF002110203FE0E2498D
:100BF000884206D101212020FFF78CFF0021202010
:100C000035E0DE49884202D10121441444E0DC4948
:100C1000884202D10121CC043EE0DA49884202D167
:100C200001210C0538E0D849884202D101214C0548
:100C300032E0D649884206D101214020FFF76AFF01
:100C40000021402013E0D249884206D101218020B2
:100C5000FFF760FF0021802009E0CE4988420AD1D9
:100C6000841501212046FFF755FF00212046BDE8ED
:100C70001040FFF74FBFC849884202D101210C0440
:100C80000AE0C649884202D101214C0404E0C4496B
:100C900088420AD101218C042046FFF732FF20460A
:100CA000BDE810400021FFF72CBF10BD30B5028811
:100CB000AC4BB24C98420DD0A0420BD0B0F1804F5B
:100CC00008D0A94DA84205D0A84DA84202D0A84DF1
:100CD000A84203D122F070054A882A43A54DA842B4
:100CE00006D0A54DA84203D022F44075CA882A43F5
:100CF00002808A8882850A88028598420AD0A042AA
:100D000008D0A54A904205D0A44A904202D0A44AF5
:100D1000904201D1097A01860121818230BD30B52E
:100D2000028C22F001020284028C8388048B22F060
:100D3000020224F073050C882C430D8915434A8860
:100D40002A43884DA8420BD08C4DA84208D0924D22
:100D5000A84205D0914DA84202D0914DA8420DD194
:100D600022F008054A8923F440732A4322F004053F
:100D70008A882A438D891D43CB892B438380048332
:100D8000C9888186028430BD70B5028C22F01002C1
:100D90000284028C8488038B0D8823F4E6464FF688
:100DA000FF7303EA052535430E8922F0200203EA8A
:100DB000061616434A8803EA02123243694EB042CD
:100DC00002D06E4EB04215D122F080064A8924F43A
:100DD000406403EA0212324322F040068A8803EAA2
:100DE000021232438E8903EA86062643CC8903EA3F
:100DF0008404344384800583C9880187028470BDDC
:100E000070B5028C22F480720284028C8488838BF9
:100E10000D8823F073031D4322F400730E894FF6EF
:100E2000FF7202EA06261E434B8802EA032333437D
:100E30004C4EB04202D0514EB04215D123F4006660
:100E40004B8924F4405402EA0323334323F480669D
:100E50008B8802EA032333438E8902EA061626436F
:100E6000CC8902EA0414344384808583C98881874D
:100E7000038470BD70B5028C22F480520284048C0D
:100E80008288838B0D8823F4E6464FF6FF7303EACE
:100E90000525354324F400560C8903EA0434344311
:100EA0004E8803EA063626432E4CA04202D0334C2D
:100EB000A04205D122F480448A8903EA82122243A7
:100EC00082808583C988A0F84010068470BD828B1B
:100ED00022F440628283828B4FF6FF7303EA012182
:100EE0000A4382837047828B22F00C028283828BBA
:100EF0000A4382837047028B22F440620283028B92
:100F00004FF6FF7303EA01210A4302837047F0B5ED
:100F1000048C24F010040484078B048C4FF6FF75B6
:100F200027F4734705EA03333B4305EA02221A43D9
:100F30000C4B05EA011698420ED0104B98420BD08C
:100F4000B0F1804F08D0084B984205D0074B98422B
:100F500002D0074B984225D124F02001314341F0C3
:100F6000100124E0002C0140000400400008004073
:100F7000000C00400010004000140040003401400C
:100F8000004C014000500140005401400018004056
:100F9000001C00400020004000400140004401408F
:100FA0000048014024F0A0030B4343F010010283EA
:100FB0000184F0BD028B22F00C020283028B0A43F3
:100FC0000283704770B5048C24F001040484058BFF
:100FD000048C4FF6FF7606EA0313134325F0F3055E
:100FE000F94A2B4390420ED0F84A90420BD0B0F110
:100FF000804F08D0F64A904205D0F64A904202D07F
:10100000F54A904202D124F0020201E024F00A02E3
:101010000A4342F001010383018470BD2DE9F05FB2
:101020000D4604460888E84FDFF8A0C3DFF8A08328
:101030004988AA882B894FF0804960B3042832D0B0
:101040004FF6FF7E082836D0208C9B4620F4805037
:101050002084A38B268C704600EA022223F473437B
:101060001A4300EA0B3010430EEA013EBC420BD09B
:10107000644509D04C4507D0444505D0D54A944233
:1010800002D0D54B9C4245D126F4005141EA0E01D5
:1010900041F4805143E02046FFF794FFE988204661
:1010A000BDE8F05F86E72046FFF731FFE98820467C
:1010B000BDE8F05F1FE7208C20F480702084B4F836
:1010C0001CA0208C0EEA031313432AF0F30A0EEA45
:1010D000012B43EA0A03BC420BD0644509D04C45BE
:1010E00007D0444505D0BB4A944202D0BA4A944244
:1010F00004D120F4007040EA0B0002E020F42060EC
:10110000084340F48070A3832084E9882046BDE82A
:10111000F05FE8E626F402420A4342F48051A083DD
:1011200020462184E988BDE8F05FD0E62DE9F04152
:101130000C46002649880746012501B90226A288E7
:10114000012A00D10225208823890028384610D0A2
:10115000FFF7DDFEE1883846FFF7CDFE23892A46FA
:1011600031463846FFF72EFFE1883846BDE8F041AA
:1011700020E7FFF727FFE1883846FFF71BFF2389A9
:101180002A4631463846FFF7C2FEE1883846BDE8B8
:10119000F041B0E610B50A884B88CC881A438B889A
:1011A00023431A430B891A434B8989891A430A43FB
:1011B000A0F8442010BD4FF6FF718180002101800E
:1011C000C18041800172704700210180418081808F
:1011D000C180018141818181C181704700210180ED
:1011E000418001228280C1800181704700210180FD
:1011F00041808180C18001814181818170470029C6
:10120000018802D041F0010101E021F001010180DB
:101210007047002930F8441F02D041F4004101E03A
:10122000C1F30E0101807047002A828901D00A4370
:1012300000E08A4382817047818270471143A0F8A1
:1012400048107047002A828901D00A4300E08A438F
:1012500082817047018921F007010181704702896D
:1012600022F070020A430281704700B50346FFF77F
:10127000F6FF188940F00700188100BD70B51646CA
:101280000D46602904464FF0010231460AD0FFF7AF
:1012900099FE29462046FFF7E2FF208940F007002B
:1012A000208170BDFFF733FEF3E730B504894FF6B8
:1012B000FF7505EA03231343E4B20B432343038181
:1012C00030BD10B50446FFF7F0FF208940F07700ED
:1012D000208110BD10B50446FFF7E7FF208940F4D8
:1012E0008040208110BD018582827047028822F0F3
:1012F00070020A430280704770B50589048B068C22
:1013000025F007050D434FF6FC410C4040F201115A
:101310000C434FF6FF7101EA031126F02206114338
:10132000314305810483018470BD028B22F0700279
:101330000A4302837047028B4FF6FF7322F4E042A8
:1013400003EA0121114301837047828B22F070026E
:101350000A4382837047828B4FF6FF7322F4E04288
:1013600003EA01211143818370470029018802D0DB
:1013700041F0800101E021F08001018070470029E7
:10138000818802D041F0040101E021F00401818054
:1013900070470029818802D041F0080101E021F066
:1013A0000801818070470029818802D041F0010145
:1013B00001E021F0010181807047028B22F00802D8
:1013C0000A43028370470000002C014000340140B2
:1013D0000004004000080040000C0040028B4FF663
:1013E000FF7322F4006203EA012111430183E9E75C
:1013F000828B22F008020A438283E3E7828B4FF656
:10140000FF7322F4006203EA012111438183D9E7CB
:10141000028B22F004020A430283D3E7028B4FF6C9
:10142000FF7322F4806203EA012111430183C9E7BB
:10143000828B22F004020A438283C3E7828B4FF639
:10144000FF7322F4806203EA012111438183B9E72B
:10145000028B22F080020A430283B3E7028B4FF62D
:10146000FF73C2F30E0203EA012111430183A9E7CE
:10147000828B22F080020A438283A3E7828B4FF69D
:10148000FF73C2F30E0203EA01211143818399E73E
:10149000028C22F002020A43028493E7028C22F0BB
:1014A00008020A4302848DE7028C4FF6FF7322F094
:1014B000200203EA01111143018483E7028C4FF6F5
:1014C000FF7322F0800203EA01111143018479E7DE
:1014D000028C4FF6FF7322F4007203EA01211143DC
:1014E00001846FE7028C4FF6FF7322F4006203EA77
:1014F00001211143018465E7028C4FF6FF7322F44A
:10150000005203EA0131114301845BE710B5012366
:10151000048C8B409C430484038C8A4013430384D3
:1015200010BD10B50423048C8B409C430484038CB1
:101530008A401343038410BD30B50124058C00F1AB
:1015400018038C40A543058489B108290FD0091FD1
:10155000C1F34E001844016821F4E04101600168C4
:101560004FF6FF7303EA02221143016030BD03EB23
:101570005100016821F0700101600168F4E7002961
:10158000018802D041F0020101E021F00201018056
:1015900018E70029018802D041F0040101E021F0A0
:1015A000040101800EE70029818802D041F080010A
:1015B00001E021F08001818004E7028822F0080226
:1015C000028002880A430280FCE6828822F07002D0
:1015D000828082880A438280F4E6028922F0070230
:1015E000028102890A430281ECE6028922F080022C
:1015F000028102890A430281E4E68184E2E6818570
:10160000E0E68186DEE60187DCE68187DAE6A0F89F
:101610004010D7E6028822F44072028002880A4312
:101620000280CFE6808ECDE6008FCBE6808FC9E6C4
:10163000B0F84000C6E6808CC4E6008DC2E60246E3
:101640000020128A0A4200D00120BBE6C943018271
:10165000B8E602460020138A92890B4202EA010290
:1016600002D0002A00D00120ACE6C9430182A9E6DD
:10167000C44910B588420AD101218C032046FFF7E6
:1016800040FA2046BDE810400021FFF73ABABE49B3
:10169000884202D101214C0410E0BC49884202D1A9
:1016A00001218C040AE0BA49884202D10121CC040C
:1016B00004E0B84988420AD101210C052046FFF711
:1016C00029FA2046BDE810400021FFF723BA10BDDB
:1016D00030B50446008A85B00D464CF6FF710840CF
:1016E000E98801432182A1894EF6F3100140A888C0
:1016F0002A8910436A890A431043A081A08A4FF6C1
:10170000FF410840A9890143A1826846FFF79EF97D
:101710009C48844201D1039800E00298A189090401
:1017200000EBC00101EB0010296801D5490000E081
:101730008900B0FBF1F06422B0FBF2F109010B0962
:101740006FF018056B4300EB8300A3891D044FF075
:10175000320306D503EBC000B0FBF2F000F0070047
:1017600005E003EB0010B0FBF2F000F00F000843BF
:10177000208105B030BD4FF41651016000218180F9
:10178000C18001810C2242818181704710B5038A9A
:101790004FF2FF0213400A884C8822438C88C98884
:1017A0000C4322431A43028210BD00210180418074
:1017B0008180C18070470029818902D041F40051A5
:1017C00001E021F400518181704710B5C1F342134B
:1017D00001F01F040121A140012B07D0022B07D0EB
:1017E0001430002A026805D00A4304E00C30F8E700
:1017F0001030F6E78A43026010BD002A828A01D0C9
:101800000A4300E08A4382827047028A22F00F0274
:101810000282028A0A4302827047828922F40062AD
:10182000828182890A43828170470029818902D09E
:1018300041F0020101E021F0020181817047028A3A
:1018400022F020020282028A0A43028270470029A3
:10185000018A02D041F4804101E021F480410182FB
:101860007047C1F30801818070478088C0F3080089
:101870007047818941F0010181817047028BD2B2AA
:101880000283028B42EA012101837047028B02F43A
:101890007F420283028B0A43028370470029818AB8
:1018A00002D041F0200101E021F020018182704747
:1018B0000029818A02D041F0100101E021F01001DD
:1018C000818270470029818A02D041F0080101E03D
:1018D00021F00801818270470029818902D041F4FA
:1018E000004101E0C1F30E01818170470029818A26
:1018F00002D041F4006101E021F40061818270476F
:10190000828A22F004028282828A0A43828270479B
:101910000029818A02D041F0020101E021F0020198
:10192000818270470246002012880A4200D00120BE
:101930007047C9430180704730B501F01F02012490
:101940000025C1F3421304FA02F2012B0FD0022B3F
:101950000FD0838A4FEA11210088134204FA01F460
:1019600000EA040001D000B10125284630BD83897A
:10197000F0E7038AEEE70A0A01219140C94301809A
:10198000704700000038014000440040004800401B
:10199000004C00400050004010B502F0F7F901285B
:1019A00003D0BDE8104003F050BB10BD10B50420BB
:1019B000FEF7A9FC1E48204B01681E48B1FBF0F25F
:1019C000B1FBF0F14FF47A7041434FF0E0201A7010
:1019D000026942F0020202614161016941F00101C4
:1019E000016110BD70B54FF0E02400226569124915
:1019F000A36909784843A1699942FCD002D2A3EBBC
:101A0000010302E0A5EB010633441A440B4682426F
:101A1000F1D370BD70B5054600244FF47A7603E02B
:101A20003046FFF7DFFF641CAC42F9D370BD000005
:101A3000B800002040420F001400002070474049C9
:101A40000A885206FCD53E4AC1B2121D1180704769
:101A500070B5054686B0012144F20400FFF73FF857
:101A60004FF40070ADF8100003248DF812401820D8
:101A7000344E8DF8130004A93046FEF746FE3015AB
:101A8000ADF8100004208DF8130004A93046FEF7CD
:101A90003CFE25208DF814008DF815408DF8164079
:101AA00001208DF8170005A8FEF7EDFB0020ADF82A
:101AB0000400ADF80600ADF80800ADF80C000C20ED
:101AC0001F4CADF80A00009569462046FFF700FE5E
:101AD000012240F225512046FFF777FE01212046E2
:101AE000FFF769FE06B070BD70B5154C40F2255188
:101AF0002046FFF721FF00280ED02046FFF7B5FE55
:101B0000C2B2114801880B0406D44C044FF0000304
:101B100006D50A2A01D0038070BD41F400410DE0D2
:101B20000D2A09D0C1F30D04084D491C89B22A556C
:101B30000180C729EFD870BD41F48041018070BD9C
:101B4000003801400008014016000020E400002099
:101B500000F108014FF0FF32C0E90112C1600161DC
:101B600000210160704700210161704742684A60AE
:101B700093688B6093685960916008610168491CA3
:101B80000160704730B50B685A1C02D000F10802A2
:101B900002E0026904E02246546825689D42FAD9B1
:101BA00053684B6099608A60516008610168491C04
:101BB000016030BDD0E9013201699A60D0E90123AA
:101BC0005A604A68824201D182684A6000220261FA
:101BD0000868401E08600868704700002DE9F04161
:101BE0000F4604004FF001062BD0E06B78B3B51E12
:101BF000B5FBF0F1206C814229D303F0FBF9D4E965
:101C00000F20216802FB0011A1600021A16321685F
:101C100061600A46D4E90F01401E00FB0121204605
:101C2000E16000F8445F457004F11000002F18D007
:101C3000FFF78EFF04F12400FFF78AFF03F0F4F9A9
:101C40000CE04FF48872F5A1FCA004F099F900268D
:101C500040F24512F1A1F9A004F092F93046BDE836
:101C6000F08121690029E9D001F04AFF0028E5D080
:101C7000F6494FF080500860BFF34F8FBFF36F8F6E
:101C8000DCE72DE9F8431C00DDF8209017460E46EE
:101C900080464FF0000505D140F25912DFA1E7A0C0
:101CA00004F06EF9B8F1000F04D01CB10FB156B9B1
:101CB00000E046B14FF4C172D8A1E0A004F060F991
:101CC0002846BDE8F8835420012084F846002546C4
:101CD0004B463A4631464046009400F0B5FEEFE7E9
:101CE000F8B517460E4605004FF000041AD0601EE6
:101CF000B0FBF5F0B04215D305FB06F010F1550F1F
:101D000010D8543002F0BAFF040011D0002084F83B
:101D1000460004F154023B4631462846009400F048
:101D200093FE05E04FF4E372BCA1C4A004F028F9CF
:101D30002046F8BD2DE9F041856B17460446002684
:101D4000026C82B1C7B1E06804F0A9FAE168206CC6
:101D5000091AE1602268914202D2A168081AE06083
:101D6000022F16D017E02068A8B9A06802F06DF81D
:101D700006460020A0600EE0606804F090FA216C36
:101D8000606808446060A168884204D3206860608D
:101D900001E005B16D1E6D1CA56330465FE7F1B52E
:101DA00000260098846C2CB940F6D5329BA1A3A0E4
:101DB00004F0E6F8A06BE16B884205D340F6D6321A
:101DC00096A19EA004F0DCF8A06BE16B88421ED2C5
:101DD00094F94550002269462046FFF7ABFF0646BE
:101DE000681C02D07F2D09D00EE0606A78B104F142
:101DF000240001F085FE50B1012608E040F6F632DD
:101E000086A18EA004F0BCF86D1C84F845503046C5
:101E1000F8BD2DE9F041044603F0ECF894F9455083
:101E200004F124060FE0A06C18B12046FFF7B7FFBD
:101E300004E0606A48B1304601F062FE08B101F08A
:101E400090FF6D1E6DB2002DEDDC4FF0FF3684F873
:101E5000456003F0E9F803F0CDF894F9445004F13B
:101E6000100709E0206948B1384601F049FE08B181
:101E700001F077FF6D1E6DB2002DF3DC84F8446035
:101E8000BDE8F04103F0D0B82DE9FF4782B01D4610
:101E90008A464FF00008040005D140F22E325FA1BF
:101EA00066A004F06DF8BAF1000F07D1206C28B1DC
:101EB00040F22F3259A161A004F062F8022D08D13E
:101EC000E06B012805D04FF44C7254A15BA004F0E4
:101ED00057F801F05BFF38B9049828B140F233326B
:101EE0004EA156A004F04CF8584F4FF000094FF0A7
:101EF000805600BF03F07EF8A06BE16B884207D3E9
:101F0000022D05D0049838B3B8F1000F27D02BE08C
:101F1000D4F838802A4651462046FFF70BFFA16CC3
:101F200041B1022D02D1B8F1000F0FD12046FFF7C9
:101F300036FF05E0616A19B104F1240001F0E0FD0B
:101F400020B13E60BFF34F8FBFF36F8F03F06CF88B
:101F5000012006B0BDE8F08703F066F822E068468D
:101F600001F0B6FE4FF0010803F05EF801F0B6F89C
:101F700003F040F894F94400401C01D184F84490E7
:101F800094F94500401C01D184F8459003F04CF8C9
:101F900004A9684601F0A2FE30B12046FFF739FFE0
:101FA00000F0CBFF0020D4E703F024F8A06BE16B36
:101FB000884213D103F038F804F11000049901F0BD
:101FC00029FD2046FFF725FF00F0B7FF002891D13B
:101FD0003E60BFF34F8FBFF36F8F8BE703F024F8A2
:101FE0002046FFF716FF00F0A8FF83E710B5024672
:101FF00000210120FFF774FE044600F038FD204662
:1020000010BD38B50B460022009011460120FFF7A5
:1020100038FE044600F02BFD204638BD2E2E5C4DC8
:102020006964646C6577617265735C46726565525C
:10203000544F535C71756575652E63004572726F00
:10204000723A2025732C2025640D0A0004ED00E06F
:1020500010B5040007D140F28322AFF24001AFF285
:10206000240003F08DFF01F08EFEA16888420BD1A1
:10207000E068401EE06005D100231A46194620465C
:10208000FFF702FF012010BD002010BD2DE9F34332
:10209000002683B00400354607D140F2E352AFF288
:1020A0008401AFF2680003F06BFF206C38B140F29E
:1020B000E752AFF29801AFF27C0003F061FF01F04C
:1020C00065FE48B9049838B140F2EC52AFF2B40161
:1020D000AFF2980003F054FF4FF000094FF0805723
:1020E000DFF8EC8802F086FFA06BC8B1401EA06349
:1020F000206810B901F0C8FFA060206950B104F158
:10210000100001F0FDFC28B1C8F80070BFF34F8F3C
:10211000BFF36F8F02F088FF012005B0BDE8F083A8
:10212000049808B166B10FE03DB140F23262AFF2FF
:102130001411AFF2F80003F023FF02F075FF5DE029
:10214000684601F0C5FD012602F06EFF00F0C6FFF3
:1021500002F050FF94F94400401C01D184F84490EF
:1021600094F94500401C01D184F8459002F05CFFD1
:1021700004A9684601F0B2FD0028204612D0FFF7FE
:1021800048FE00F0DAFE204600F07CFC0028A9D0D2
:102190009DB302F02FFF606A50B3206B0068C0F15E
:1021A000200126E000F06EFCE0B1206838B902F0B2
:1021B00021FFA06801F0F5FD054602F035FF04F1AE
:1021C0002400049901F026FC2046FFF722FE00F0CF
:1021D000B4FE002886D1C8F80070BFF34F8FBFF35C
:1021E0006F8F7FE72046FFF714FE00F0A6FE79E729
:1021F0000021A06801F080FE9FE7FFE700208CE748
:1022000070B50D46040007D140F2BB22AFF2F411C5
:10221000AFF2D81003F0B4FE01F0B5FDA16888421A
:1022200004D1E068401CE060012070BD29462046D2
:10223000FFF72CFF0028F8D0E168491CE16070BD71
:1022400038B50D46002460B185420AD802211346F4
:10225000002200911146FFF714FD040009D0A56388
:1022600007E04FF43E72AFF24C21AFF2302003F0A2
:1022700087FE2046D1E670B50D46002448B1854260
:1022800007D802220021FFF72BFD040009D0A56327
:1022900007E040F21B32AFF27C21AFF2602003F086
:1022A0006FFE204670BD2DE9F0471F4616468A4650
:1022B000040007D140F20242AFF2A021AFF2842025
:1022C00003F05EFEBAF1000F09D1206C38B140F284
:1022D0000342AFF2B821AFF29C2003F051FE022F6F
:1022E0000AD1E06B012807D040F20442AFF2D421BA
:1022F000AFF2B82003F044FE02F0BBFE5021EFF332
:10230000118081F31188BFF34F8FBFF36F8F804629
:10231000A06BE16B884206D3022F04D05FF000006F
:1023200088F3118816E694F94550D4F838903A4667
:1023300051462046FFF7FEFC681C02D07F2D16D0C8
:102340001DE0A06C012540B1022F02D1B9F1000FB0
:1023500018D12046FFF723FD05E0606A90B104F133
:10236000240001F0CDFB68B166B135600AE040F2AF
:102370008D42AFF25831AFF23C3003F001FE6D1CDC
:1023800084F845500120CBE72DE9F0410F460400C9
:1023900007D140F2AD42AFF27C31AFF2603003F0D2
:1023A000EFFD206C38B140F2B142AFF29031AFF2A4
:1023B000743003F0E5FD206848B9A06838B140F2F8
:1023C000B642AFF2A831AFF28C3003F0D9FD02F083
:1023D00050FE5020EFF3118680F31188BFF34F8F2A
:1023E000BFF36F8FA06BE16B814226D994F9455002
:1023F000401CA063681C02D07F2D11D018E0A06C97
:10240000012518B12046FFF7CAFC05E0606A90B1CB
:1024100004F1240001F074FB68B167B13D600AE08B
:1024200040F23552AFF20C41AFF2F03003F0A8FDAC
:102430006D1C84F84550012000E0002086F31188CF
:102440000DE430B4026C0B46002A0BD0C168114475
:10245000C1608468A14201D30168C16030BC1846E4
:1024600003F01DBF30BC70472DE9F747002683B04D
:102470008A46040007D140F25152AFF26041AFF2F8
:10248000444003F07DFDBAF1000F09D1206C38B152
:1024900040F25552AFF27C41AFF2604003F070FD64
:1024A00001F074FC48B9059838B140F25A52AFF2C5
:1024B0009441AFF2784003F063FDDFF814854FF0EC
:1024C00000094FF0805700BF02F094FDA56BB5B135
:1024D00051462046FFF7B5FF6D1EA563206950B138
:1024E00004F1100001F00CFB28B1C8F80070BFF334
:1024F0004F8FBFF36F8F02F097FD012029E50598FC
:1025000008B11EB106E002F08FFD27E0684601F039
:10251000DFFB012602F088FD00F0E0FD02F06AFD1D
:1025200094F94400401C01D184F8449094F945008A
:10253000401C01D184F8459002F076FD05A968465B
:1025400001F0CCFB002820460AD0FFF762FC00F027
:10255000F4FC204600F096FA0028B5D00020F8E4FC
:1025600000F090FA90B104F12400059901F052FABC
:102570002046FFF74EFC00F0E0FC0028A4D1C8F88C
:102580000070BFF34F8FBFF36F8F9DE72046FFF7BB
:1025900040FC00F0D2FC97E72DE9F743002582B01C
:1025A0008946040007D140F2BC62AFF29051AFF20D
:1025B000745003F0E5FCB9F1000F09D1206C38B17B
:1025C0004FF4D862AFF2AC51AFF2905003F0D8FCA8
:1025D00001F0DCFB48B9049838B140F2C562AFF2B3
:1025E000C451AFF2A85003F0CBFC4FF000084FF0FD
:1025F0008056F74F02F0FEFCA06BA8B1494620467A
:10260000E568FFF71EFFE560606A48B104F1240049
:1026100001F076FA20B13E60BFF34F8FBFF36F8FAA
:1026200002F002FD012078E5049808B11DB106E032
:1026300002F0FAFC27E0684601F04AFB012502F0AF
:10264000F3FC00F04BFD02F0D5FC94F94400401C73
:1026500001D184F8448094F94500401C01D184F8EC
:10266000458002F0E1FC04A9684601F037FB002830
:1026700020460AD0FFF7CDFB00F05FFC204600F0BB
:1026800001FA0028B6D0002047E500F0FBF988B138
:1026900004F12400049901F0BDF92046FFF7B9FBCD
:1026A00000F04BFC0028A5D13E60BFF34F8FBFF375
:1026B0006F8F9FE72046FFF7ACFB00F03EFC99E7E9
:1026C0002DE9F04790468946040007D140F2517247
:1026D000AFF2B861AFF29C6003F052FCB9F1000FA9
:1026E00009D1206C38B140F25272AFF2D061AFF232
:1026F000B46003F045FC02F0BCFC5020EFF31186FF
:1027000080F31188BFF34F8FBFF36F8FA76B3FB379
:1027100094F9445049462046FFF793FE7F1EA76375
:10272000681C02D07F2D0ED015E02069B0B104F1F5
:10273000100001F0E5F988B1B8F1000F0ED00121C9
:10274000C8F800100AE040F29572AFF23071AFF2B3
:10275000147003F015FC6D1C84F84450012000E057
:10276000002086F31188DDE52DE9F0410E460400D6
:1027700007D14FF4F662AFF25C71AFF2407003F034
:10278000FFFB4EB9206C48B140F2B172AFF27471E8
:10279000AFF2587003F0F4FB206C38B940F2B2721B
:1027A000AFF28871AFF26C7003F0EAFB02F061FCEB
:1027B0005020EFF3118580F31188BFF34F8FBFF3E3
:1027C0006F8FA06B30B131462046E768FFF739FEC6
:1027D0000120E76085F3118832E610B5040007D1C7
:1027E00040F2E372AFF2CC71AFF2B07003F0C8FB0D
:1027F00002F000FCA46B02F017FC204610BD10B5DF
:10280000040007D140F2F472AFF2F071AFF2D4706D
:1028100003F0B6FB02F0EEFBD4E90E10441A02F00E
:1028200003FC204610BD10B5040007D140F6050298
:10283000AFF61801AFF2FC7003F0A2FBA06B10BD65
:1028400010B5040007D140F61632AFF63001AFF6EE
:10285000140003F095FB5F48002100BF00EBC102AC
:102860005268A24206D1002240F8312000EBC1009C
:10287000426010BD491C0829F0D310BD10B50400FA
:1028800007D14FF40162AFF66C01AFF6500003F0D0
:1028900077FB2046FFF7D4FF94F84600002804D1C8
:1028A0002046BDE8104002F05DBA10BDC06C704714
:1028B000C164704790F85000704710B5040007D10C
:1028C00040F66A12AFF6AC01AFF6900003F058FB89
:1028D000A06B08B1002010BD012010BD10B5040090
:1028E00007D140F69312AFF6CC01AFF6B00003F07B
:1028F00047FBA06BE16B884201D1012010BD002095
:1029000010BD70B50E4605004FF0000407D140F62B
:10291000C822AFF6F801AFF6DC0003F031FB002E61
:1029200016D02C48002200BF00EBC2014B68AB421E
:1029300002D100EBC20407E01CB950F8323003B9F1
:102940000C46521C082AEFD3002C01D0C4E90065C4
:1029500070BD70B504004FF0000507D140F6F822B5
:10296000AFF64811AFF62C1003F00AFB194800210E
:1029700000EBC1025268A24202D150F8315002E08D
:10298000491C0829F4D3284670BD70B515460E467B
:10299000044602F02FFB94F944100020491C01D199
:1029A00084F8440094F94510491C01D184F845008D
:1029B00002F03AFBA06B28B92A46314604F1240004
:1029C00001F075F82046BDE87040FFF722BA00001C
:1029D00004ED00E0AC01002000220421FFF780B9E3
:1029E00070B50D46044602F005FBA06C08B9A06B5B
:1029F00008B1002401E0A564012402F015FB204683
:102A000070BD10B50446806C884201D1A06B08B13E
:102A1000002010BD02F0EEFA0020A06402F004FBDA
:102A2000012010BD08B5002200920A466946FFF752
:102A30001BFD009808BD08B500210A4600916946B3
:102A4000FFF73EFE009808BD70B51D46049C61B1BD
:102A5000C4F80020C4E90F0101212046FFF7BEF8A9
:102A600084F850500020A06470BD2460F2E7002874
:102A700007D00021816001600B460A46C160FFF764
:102A800003BA704710B5044602F0B4FAA06B28B13F
:102A90005FF0000402F0C8FA204610BD0124F9E7F7
:102AA0002DE9F041054602F0A5FAFE4CA068401C55
:102AB000A0602068FC4F10B1606930B32BE0256046
:102AC000A068012827D1002606EB860007EB8000CE
:102AD000FFF73EF8761C202EF6D3F448FFF738F8BF
:102AE000F2481430FFF734F8F0482830FFF730F898
:102AF000EE483C30FFF72CF8EC485030FFF728F850
:102B0000EA48A0631430E06305E02068E96AC06A1F
:102B1000884200D82560606A401C60626864E96A87
:102B20000120226988401043206101EB810007EBFE
:102B300080004068A8608168E9608268291D516052
:102B40008160E86A00EB800007EB8001696157F85B
:102B50002010491C47F8201002F066FA606900282E
:102B60000CD02068E96AC06A884207D2D0494FF089
:102B700080500860BFF34F8FBFF36F8FBDE8F081C7
:102B80002DE9F05F0F46DDE90B9415468346910071
:102B90009A460A9EA522206B03F0C6FB6FF0030144
:102BA000206B01EB8501084420F007085FEA4870BC
:102BB00005D04FF45872BFA1C6A003F0E1F900257B
:102BC00067B100202218395C82F83410395C11B1E9
:102BD000401C1028F6D384F8435001E084F83450A8
:102BE000202E06D340F29732B2A1BAA003F0C8F962
:102BF0001F26E662C4E91365201DFEF7B4FF04F149
:102C00001800FEF7B0FF2461C6F120006462A061E5
:102C1000656584F8585084F85A50524659464046E3
:102C200002F067F92060B9F1000F01D0C9F8004047
:102C3000BDE8F09F2DE9F04786B01F46DDE90F544F
:102C40000E9E9046894682462DB940F24A2299A1AD
:102C5000A0A003F095F92CB940F24B2295A19DA0BC
:102C600003F08EF95C2000900020B4B1ADB10221D8
:102C7000256384F85910039004A90096CDE9011446
:102C80003B46424649465046FFF77AFF2046FFF74B
:102C900007FF049806B0BDE8F0870490FAE72DE935
:102CA000FF5F8346DDE90E87994616468A46900007
:102CB00001F0E4FF05001BD05C2001F0DFFF040001
:102CC00013D00020256384F85900CDE90240CDE9F6
:102CD00000874B46324651465846FFF751FF204683
:102CE000FFF7DEFE012004B0A2E7284602F03AF822
:102CF0004FF0FF30F7E710B5044690F8590058B18F
:102D000001280CD002280FD0BDE8104040F69C727C
:102D100068A170A003F034B9206B02F023F82046BC
:102D2000BDE8104002F01EB810BD70B5054602F0B7
:102D300061F95C4C05B92568281DFEF73BFF58B9C1
:102D4000E86A594A00EB800152F8211021B90121AB
:102D50008140206988432061A86A18B105F11800F4
:102D6000FEF728FF606A401C60622068854208D137
:102D70004E48291D3C30FEF7F9FE6068401C60603B
:102D800004E0A068401EA06001F043FC02F04CF992
:102D90002068854202D02846FFF7ADFF6069002811
:102DA00012D0206885420FD1606B28B140F2DC421E
:102DB00040A148A003F0E4F83D494FF0805008607E
:102DC000BFF34F8FBFF36F8F70BD2DE9F041354CCE
:102DD0000026606B20B1A069401CA0613046CDE6A2
:102DE000E5686D1CE56011D1A06B006828B140F664
:102DF000C72230A137A003F0C3F8A06BE16BA16339
:102E0000E063206A401C206201F003FCA16A2648AE
:102E10008D420FD34FF0000EA16B096839B1A16B41
:102E2000C968C9684A68954212D2A26202E04FF0AE
:102E3000FF31A1622168C96A01EB810150F82100CC
:102E4000012800D90126E0690028C7D00126C5E77E
:102E5000D1E902724B69BA60D1E902277A605F68F2
:102E60000A1D974201D1CF685F60C1F814E01F6866
:102E70007F1E1F60D1F828C0BCF1000F37D0D1E908
:102E800007379F60D1E907377B60DCF8047001F1F8
:102E900018039F4202D10B6ACCF80430C1F828E035
:102EA00020E000001C000020EC0100206C04002049
:102EB00004ED00E02E2E5C4D6964646C65776172F0
:102EC00065735C4672656552544F535C7461736BF5
:102ED000732E63004572726F723A2025732C202581
:102EE000640D0A00DCF800305B1ECCF80030CB6AC1
:102EF0000127D4F810C09F4047EA0C07276103EB75
:102F0000830300EB83035B688B609F68CF609F68DF
:102F10007A609A60CA6A02EB820200EB82034B611C
:102F200050F822305B1C40F82230C96A2268D26A0D
:102F30009142FFF471AF01266EE72DE9F041FE4D9D
:102F400000242746686B38B940F6B302AFF29C0103
:102F5000AFF2800003F014F802F04CF8686B401EEA
:102F60006863686B002871D1A868F44B00264FF0A5
:102F70000108E8BB6AE0D868C468D4E90721A06A00
:102F80009160D4E907125160426804F118018A4245
:102F900001D1216A4160A6620168491E0160D4E93D
:102FA000022160699160D4E9021251604268211DDA
:102FB0008A4201D1E268426066610268521E026084
:102FC000E26AD5F810C008FA02F040EA0C00286165
:102FD00002EB8200DA4A02EB80004068A060D0F881
:102FE00008C0C4F80CC0D0F808C0CCF8041000E049
:102FF00012E08160E06A00EB800002EB8001616119
:1030000052F82010491C42F82010E06A2968C96A69
:10301000884201D3C5F81C8018680028ABD10CB1D8
:1030200001F0F7FAAC693CB1FFF7CFFE08B1C5F883
:103030001C80641EF8D1AE61E86938B1C14901272E
:1030400038070860BFF34F8FBFF36F8F01F0ECFFBD
:10305000384693E52DE9F041B74C0F460546E66842
:103060002168002081F85A002068001DFEF7A2FDAB
:1030700038B9206890F82C100120884021698143DC
:103080002161681C15D1A7B1AC4922682831486874
:10309000906023688268DA6022688368121D5A6033
:1030A0002268121D8260206841610868401C086027
:1030B00064E520683544B5424560216805D2E06B7F
:1030C000BDE8F041091DFEF75DBDA06B091DFEF7CF
:1030D00059FDA06A8542EBD2A5624FE59648416B47
:1030E000491C416370472DE9F0410E4604004FF042
:1030F000000507D140F2F142AFF24821AFF22C2097
:1031000002F03EFF3EB940F2F242AFF25821AFF278
:103110003C2002F035FF884F786B38B140F2F34223
:10312000AFF27021AFF2542002F02AFFFFF7D6FF72
:10313000FA6820688119904204D988420BD99142DB
:1031400002D808E08842FAD9881A216001250021B6
:10315000FFF780FF00E02160FFF7EFFE38B9794903
:103160004FF080500860BFF34F8FBFF36F8F28463A
:1031700004E510B5040014D06F48406B38B140F23C
:103180004952AFF2D021AFF2B42002F0F9FEFFF7BE
:10319000A5FF00212046FFF75DFFFFF7CEFE0028C8
:1031A00007D168494FF080500860BFF34F8FBFF3DD
:1031B0006F8F10BD2DE9F041040007D140F2755228
:1031C000AFF21031AFF2F42002F0DAFE5A4E30685E
:1031D000844201D10020D1E401F00CFF6569B76B96
:1031E000F66B01F021FFBD4201D0B54201D10220B2
:1031F000C4E452482830854208D1A06A0028F6D19C
:1032000094F8581003200129F1D0B7E44B4814304A
:10321000854202D00DB10120B0E40420AEE410B527
:10322000044601F0E7FE0CB943480468E46A01F083
:10323000FBFE204610BD10B5044601F01AFF5020D9
:10324000EFF3118180F31188BFF34F8FBFF36F8FBE
:103250000CB939480468E06A81F3118810BD2DE982
:10326000F04100270E460446202908D340F215629B
:10327000AFF2C031AFF2A43002F082FE1F2601F09F
:10328000B9FE2D4D04B92C68E06CB0424FD02968CE
:10329000864206D98C4207D02968C96AB14202D950
:1032A00002E08C4200D10127E16A8846884200D1C1
:1032B000E662E664A069002802DBC6F12000A06196
:1032C0001F4E08EB8800616906EB8000814225D122
:1032D000201DFEF76FFC012120B92A6901FA08F0D0
:1032E00082432A61E06A2A6981401143296100EB27
:1032F000800006EB80004068A0608168E160826821
:10330000211D51608160E06A00EB800006EB8001C6
:10331000616156F82010491C46F820103FB1094958
:103320004FF080500860BFF34F8FBFF36F8FBDE841
:10333000F04101F079BE00001C0000209404002040
:10334000EC01002004ED00E070B5F64C606B10B1AC
:103350000120E06170BD0020E0612069F24EB0FA0A
:1033600080F0C0F11F0000EB800556F8250038B949
:1033700040F60242AFF2C441AFF2A84002F000FEB4
:1033800006EB850000F108024168496841609142FE
:1033900001D149684160C868206070BD70B50446BD
:1033A00001F028FEDF4D04B92C68201DFEF702FC59
:1033B00058B9E06ADC4A00EB800152F8211021B9CB
:1033C00001218140286988432861A06A18B104F16D
:1033D0001800FEF7EFFB211DD448FEF7C7FB94F859
:1033E00058000026012801D184F8586001F01CFE25
:1033F000686928B101F0FEFD01F00BF901F014FE3F
:103400002868844213D1686990B1686B38B140F282
:10341000FD62AFF26051AFF2445002F0B1FDC44919
:103420004FF080500860BFF34F8FBFF36F8F70BDB8
:10343000BE480068A968884201D12E6070BDBDE811
:10344000704081E770B50025040007D140F2277273
:10345000AFF2A051AFF2845002F092FDB34960691F
:10346000884205D1A06A2839884201D000B90125D7
:10347000284670BD70B5040007D140F25172AFF21A
:10348000CC51AFF2B05002F07BFDA64D28688442CB
:103490003CD0002C3AD001F0ADFD2046FFF7D2FF22
:1034A00080B3201DFEF786FBE06A01212A69814076
:1034B000114329619C4900EB800001EB80004068CA
:1034C000A0608268E2608368221D5A608260E06AC0
:1034D00000EB800001EB80006061E06A00EB80009F
:1034E00051F82020521C41F82020E06A2968C96A5E
:1034F000884207D38E494FF080500860BFF34F8F4A
:10350000BFF36F8FBDE8704001F08EBD70BD2DE937
:10351000F0410027040007D14FF4F162AFF26C6173
:10352000AFF2506002F02CFD01F0A3FD5020EFF34C
:10353000118680F31188BFF34F8FBFF36F8F204642
:10354000FFF780FF40B1774D686B48B1774804F1D1
:1035500018012838FEF70AFB86F3118838463EE446
:10356000E06A29684FF00108C96A884202D301273E
:10357000C5F81C80201DFEF71DFBE06A2A6908FAC9
:1035800000F111432961684900EB800001EB8000E4
:103590004068A0608268E2608368221D5A60826091
:1035A000E06A00EB800001EB80006061E06A00EB04
:1035B000800051F82020521C41F82020CCE75B4EBF
:1035C000584C143E584F4FF08058DFF8649111E08A
:1035D00001F010FDF068C568281DFEF7EBFAA06841
:1035E000401EA0606068401E606001F01DFD28461E
:1035F000FFF781FB60680028EAD138680128F9D913
:10360000C9F80080BFF34F8FBFF36F8FF2E730B57B
:1036100087B00024039405AA04A903A8049402F027
:10362000ADFBDDE903010094CDE90110002341A1C8
:103630004248059AFFF7FEFA3A4DE862F0B101F010
:103640000BF9012802D0401C10D017E0502080F365
:103650001188BFF34F8FBFF36F8F4FF0FF30A86219
:1036600001206861EC6001F064FC07E04FF4046243
:10367000AFF2C071AFF2A47002F082FC286B07B009
:1036800030BD502080F31188BFF34F8FBFF36F8F91
:1036900024490020486101F0A1BC2248C06870475D
:1036A00010B501F0E6FC1F48C06810BD1D488068D9
:1036B000704710B510B104461CB10AE019480468FF
:1036C000FAE740F65912AFF61401AFF2F87002F0C3
:1036D00057FC04F1340010BDF0B5026800237AB342
:1036E000426800F1080552684260AA4201D154685C
:1036F00044604268D668426852684260AA4201D17A
:10370000546844604268D4680022A71811F802C0C7
:1037100097F83470BC4503D19FB1521C102AF4D3E2
:1037200073B910E01C000020EC010020BC04002054
:1037300004ED00E049444C4500000000BF3500089E
:1037400003E02346ECE7B442D5D11846F0BD2DE99D
:10375000F0410746202502F083FD102807D340F6EC
:10376000AB12AFF6B001AFF6940002F009FCFFF720
:10377000B5FCFE4E6D1E05EB850006EB800039465C
:10378000FFF7AAFF04001AD1002DF3D1F84D3946F6
:10379000A86BFFF7A1FF040011D13946E86BFFF7D2
:1037A0009BFF04000BD13946F248FFF795FF040058
:1037B00005D1F04839461438FFF78EFF0446FFF76D
:1037C000BCFB204645E42DE9F0410C46E84916468D
:1037D000A8B1054605F13400C4E90050E86A20614B
:1037E000286BE061686CA0600027E86CC4E90507FD
:1037F000052B12D00868854203D1277311E00D68AC
:10380000E8E72373032B0CD1FFF768FCA86A08B123
:1038100002202073FFF791FB03E02846FFF7CAFC64
:10382000207326B1286B00F000FF208411E4278468
:103830000FE42DE9F0478146086892460C460026C1
:1038400000B3606804F1080540686060A84201D1D7
:10385000416861606068D0F80C80606840686060B2
:10386000A84201D141686160606806EBC60109EBBE
:103870008101C768534601223846FFF7A4FF761C32
:103880004745EAD13046BDE8F0872DE9F0471746B5
:103890000A46054600242026FFF720FCDFF8D082E8
:1038A000D8F8080082423AD3DFF8C092761E06EBC1
:1038B000860104EBC40009EB810105EB80000122C5
:1038C000FFF7B7FF0444002EF0D104EBC40005EB72
:1038D000800002224646D8F83810FFF7AAFF0444B9
:1038E00004EBC40005EB80000222F16BFFF7A1FF9F
:1038F0000444A04904EBC40005EB80000422143901
:10390000FFF797FF044404EBC40005EB800003229B
:103910009849FFF78EFF04440FB100203860FFF78D
:103920000CFB2046AFE710B5914CE06A38B940F681
:103930003422AFF68021AFF6642002F021FBE06A6A
:1039400010BD70B58A4C0546606B38B140F6542204
:10395000AFF6A021AFF6842002F012FBFFF7BEFB0A
:10396000A0692844A061BDE87040FFF7E6BA2DE9E0
:10397000F041040007D140F66722AFF6C821AFF648
:10398000AC2002F0FDFAFFF7A9FB2046FFF712FC7E
:10399000022805D05FF00006FFF7CFFA30461AE4A0
:1039A0000126201DFEF706F901F024FBA06A01257F
:1039B00028B104F11800FEF7FDF884F85A5001F020
:1039C00033FB6B48E26A036905FA02F119430161AE
:1039D00002EB8201654A02EB81014968A1608B68B4
:1039E000E3608F68231D7B608B60E16A01EB8101DE
:1039F00002EB81016161E16A01EB810152F8213042
:103A00005B1C42F82130E16A0268D26A9142C3D954
:103A1000C561C1E770B50D46040007D140F61C42F0
:103A2000AFF67031AFF6543002F0AAFA5048016890
:103A300020461831FEF7A6F82846BDE8704001215F
:103A4000FFF708BB2DE9F04116460F46050007D1E8
:103A500040F63642AFF6A431AFF6883002F090FA65
:103A6000434C606B38B940F63A42AFF6B831AFF626
:103A70009C3002F085FA216847F000408861686850
:103A80002168C861816822681162216882681831E2
:103A90005160216818318160206885622868401C67
:103AA00028603046BDE8F0410121FFF7D3BA70B578
:103AB00015460E46040007D140F65242AFF60C41BF
:103AC000AFF6F03002F05CFA294861680268D16113
:103AD0008A6803681A6202688B6818325A60026842
:103AE00018328A60006884622068401C20600DB132
:103AF0004FF0FF3629463046BDE87040FFF7AABABE
:103B000070B5C068C4683CB940F68242AFF65C410B
:103B1000AFF6404002F034FAD4E90720A16A906081
:103B2000D4E9070250604A6804F11800824201D1CA
:103B3000226A4A600023A3620A68521E0A600C4986
:103B40004A6B0125DAB10B4B283B5A68E261966853
:103B50002662966870609060A3621868401C1860C6
:103B6000E06A0A68D26A904238D905E0EC01002088
:103B70001C000020BC0400200120CD6170BDD4E9F0
:103B800002626069B260D4E9022672604668221D52
:103B9000964201D1E6684660636103685B1E03607C
:103BA000E06A0E6905FA00F333430B61FF4B00EB4B
:103BB000800003EB80004068A0608668E66086684D
:103BC00072608260E06A00EB800003EB8002626159
:103BD00053F82020521C43F82020C1E7002070BD7C
:103BE00070B5F34E05460C46706B38B940F6BA42D4
:103BF000AFF64051AFF6245002F0C2F944F0004055
:103C00002860EC683CB940F6C242AFF65851AFF6B6
:103C10003C5002F0B5F9D5E9012128699160D5E958
:103C2000011251604168A94201D1A9684160002296
:103C30002A610168491E0160D4E902306169986017
:103C4000D4E9020358604B68201D834201D1E36828
:103C50004B6062610A68521E0A60E36A012235699C
:103C600002FA03F12943316103EB8301CF4B03EBEC
:103C700081014968A1608D68E5608D686860886031
:103C8000E06A00EB800003EB8001616153F82010D3
:103C9000491C43F82010E06A3168C96A884200D99B
:103CA000F26170BD10B5040007D140F6E642AFF6F0
:103CB000FC51AFF6E05002F063F901F09BF9BC480B
:103CC000016A2160C0686060BDE8104001F0ACB9D5
:103CD000B7490A6A0260C968416070472DE9F0413E
:103CE0000C46050007D140F6FD42AFF63861AFF64D
:103CF0001C6002F045F93CB940F6FE42AFF64C615B
:103D0000AFF6306002F03CF901F074F9A849CB68D5
:103D10006F680868DA1B002690F85A0018B1086826
:103D200080F85A6018E02068B0F1FF3F09D0D5F85C
:103D300000C0096A8C4506D09F4204D80125266040
:103D40000BE0002509E0904205D9801A2060284642
:103D5000FFF7BEFFF5E72660012501F065F928466B
:103D600030E593490120C8617047002800D0806C7D
:103D70007047002800D08164704708B98C480068FB
:103D8000006B00F052BC8A4800687047884841695F
:103D900019B1406B18B10020704701207047022014
:103DA000704770B504004FF0000047D0804DE16AC5
:103DB0002A68D26A914242D2A069002804DB2868AE
:103DC000C06AC0F12000A061784E01EB81016069FA
:103DD00006EB810188422DD1201DFDF7EBFE01216C
:103DE00030B994F82C002A6901FA00F082432A6164
:103DF0002868C06AE0622A6981401143296100EBAA
:103E0000800006EB80004068A0608168E160826805
:103E1000211D51608160E06A00EB800006EB8000AC
:103E20006061E06A00EB800056F82010491C46F8FB
:103E3000201002E02868C06AE062012070BDE16CD9
:103E40002A68D26A9142F8D370BD70B504004FF071
:103E500000064FD0564D2868844207D041F24F02E9
:103E6000AFF6B071AFF6947002F08AF8206D38B9F1
:103E700041F25002AFF6C471AFF6A87002F080F8BC
:103E8000206D401E2065E26CE16A914232D088BB11
:103E9000201DFDF78FFE012130B994F82C002A690E
:103EA00001FA00F082432A61E06CE062C0F1200078
:103EB000A061E06A2A698140114329613B4900EB16
:103EC000800001EB80004068A0608268E260836847
:103ED000221D5A608260E06A00EB800001EB8000E6
:103EE0006061E06A00EB800051F82020521C41F82C
:103EF00020200126304670BD70B50D46040060D00C
:103F0000206D30B92B4941F29F0201F1200002F0EF
:103F100037F8E06CA84200D30546E06AA84250D0CA
:103F2000206D01284DD1224E3068844206D12149AE
:103F300041F2BA0201F1200002F022F8E06AE562E3
:103F4000A169002902DBC5F12001A161174D00EB39
:103F50008000616905EB8000814232D1201DFDF7B0
:103F600029FE012130B994F82C00326901FA00F0E1
:103F700082433261E06A326981401143316100EB72
:103F8000800005EB80004068A0608168E160826885
:103F9000211D51608160E06A00EB800005EB80002C
:103FA0006061E06A00EB800006E00000EC010020A8
:103FB0001C000020B42E000855F82010491C45F8BC
:103FC000201070BD2DE9FC474FF00009044680F831
:103FD0000090FE488568806800EBC000800000F01B
:103FE0004DFE070044D000222946FFF74EFC8046D4
:103FF000002536E005EBC50007EB8006307B052881
:1040000017D2DFE800F0030510121400582000E07A
:10401000522082462046716802F0FEF8204602F0E7
:104020001FF9202109E04220F3E75320F1E7442063
:10403000EFE70020EDE72154401C0F28FBD304F8E4
:1040400000900444B168308CCDE900015246E0A1F3
:104050002046336901F0A0FF204602F001F9044434
:104060006D1C4545C6D33846BDE8FC4700F07ABE16
:10407000BDE8FC87D54908680A688069D26A096882
:10408000C2F120028A617047D049086818B10868F7
:10409000026D521C0265086870472DE9F041164612
:1040A0000F46040006D0CE4941F2662201F12000FD
:1040B00001F066FF00F09EFFC44D286800EB84000D
:1040C000406D88B929680120214481F858005EB10B
:1040D00001213046FEF7BEFFC2494FF08050086014
:1040E000BFF34F8FBFF36F8F00F09EFF00F082FF92
:1040F000286800EB8400466D002056B127B129687E
:1041000001EB8401486504E02A68711E02EB840219
:1041100051652968214481F8580000F085FF304638
:104120003DE42DE9F0471E46DDF8208091460F461C
:10413000040006D0AA4941F2B02201F1200001F0AA
:104140001FFF00F057FFA14D2868204490F8580049
:10415000022818D0286800EB8400416DB9434165FE
:1041600029680120214481F85800B8F100000AD0E4
:104170000121FEF76FFF9B494FF080500860BFF3AD
:104180004F8FBFF36F8F00F04FFF00F033FF26B16A
:10419000286800EB8400406D30602868204490F867
:1041A0005800022801D0002607E0286800EB8400B0
:1041B000416D21EA09014165012629680020214459
:1041C00081F8580000F030FF3046BDE8F0872DE957
:1041D000F0479946DDF8208015460E0004464FF062
:1041E000010706D07E4941F2083201F1200001F0BA
:1041F000C7FE34B97A4941F2093201F1200001F0D9
:10420000BFFE00F0F7FE04EB8600B8F1000F02D00D
:10421000426DC8F80020A11911F8586F02220A70E7
:10422000DFF8A881B9F1050F11D2DFE809F01A0310
:10423000060C0A00416D294301E0416D491C4165AE
:104240000FE0022E01D045650BE0002756E0D8F8BC
:104250000C0030B1624941F23E3201F1200001F020
:104260008FFE012E4AD1D4E9022061699060D4E921
:10427000020250604A68201D824201D1E2684A6011
:10428000002262610A68521E0A60E16A0122D8F8BF
:1042900010308A4045461A43C8F81020524A01EBB4
:1042A000810102EB81014968A1608B68E3608B6842
:1042B00058608860E06A00EB800002EB800060617B
:1042C000E06A00EB800052F82010491C42F82010F0
:1042D000A06A30B1424941F24D3201F1200001F0B3
:1042E0004FFEE06A2968C96A884207D93D494FF004
:1042F00080500860BFF34F8FBFF36F8F00F094FEC4
:10430000384662E72DE9F05F9B46DDE90A9A1646DA
:104310000F4604004FF0010806D1314941F28532C1
:1043200001F1200001F02CFE37B12D4941F2863217
:1043300001F1200001F024FE00F09BFE5020EFF37D
:10434000118580F31188BFF34F8FBFF36F8F04EB9C
:104350008700B9F1000F02D0426DC9F80020E119C1
:1043600011F8587F02220A70DFF86090BBF1050F48
:1043700012D2DFE80BF01B03060C0A00416D31433B
:1043800001E0416D491C416510E0022F01D04665F6
:104390000CE04FF0000843E0D9F80C0030B11049B0
:1043A00041F2CD3201F1200001F0EAFD012F37D1B9
:1043B000A06A30B10A4941F2D83201F1200001F07F
:1043C000DFFDD9F83420484601210FE01C00002011
:1043D0000925630925750925750925750D0A00004C
:1043E000B42E000804ED00E0EC010020EAB1944B8B
:1043F0005A68E26196682662976804F118067E6042
:104400009660A3621A68521C1A60E26A0368DB6A4B
:104410009A4205D9BAF1000F01D0CAF80010C16163
:1044200085F311884046BDE8F09FD4E902636269D4
:10443000B360D4E9023673605368261DB34201D1DC
:10444000E36853600023636113685B1E1360E36AD3
:10445000076901FA03F23A43026103EB8302794BE5
:1044600003EB82025268A2609768E76097687E60FB
:104470009660E26A02EB820203EB82026261E26A08
:1044800002EB820253F82260761C43F82260BCE7FC
:104490002DE9F04116460F46040006D16A4941F263
:1044A0000C4201F1200001F06BFD37B1664941F289
:1044B0000D4201F1200001F063FD00F0DAFD502013
:1044C000EFF3118580F31188BFF34F8FBFF36F8F28
:1044D000E11911F8580F02220A7004EB87014A6DA6
:1044E000521C4A65012824D1A06A30B1564941F2D4
:1044F000334201F1200001F043FD5448416B012299
:10450000D1B14F4B5968E1618F682762D1F808C07B
:1045100004F11807CCF804708F60A3621968491C75
:104520001960E16A0368DB6A994202D906B1326018
:10453000C26185F3118813E4D4E902716369B9603B
:10454000D4E9021779605F68211D8F4201D1E768C5
:104550005F60002767611F687F1E1F60E76AD0F8F1
:1045600010C002FA07F343EA0C03036107EB870369
:10457000344F07EB83035B68A360D3F808C0C4F82B
:104580000CC0D3F808C0CCF804109960E16A01EBC4
:10459000810107EB81016161E16A01EB810157F85B
:1045A00021305B1C47F82130BBE770B50D00044695
:1045B00006D0254941F2634201F1200001F0E0FC00
:1045C0000CB92248046800F015FD601990F85810E5
:1045D000022905D05FF0000400F026FD204670BDE2
:1045E000002180F858100124F6E770B515460E46F4
:1045F00060B1044600F0FEFC04EB86014C6D486D92
:10460000A843486500F010FD204670BD0F480468BF
:10461000F0E70E48816B096821B1816BC9680968B0
:10462000816270474FF0FF31FAE7002101E0401C42
:10463000491C0278A52AFAD0C1F38F007047000008
:1046400094040020EC010020B42E00081C0000207F
:1046500070B500244160F94D0061914206D8D11A2D
:104660008269914206D2011D286907E09A4203D26D
:10467000994201D3012403E0011DE868FDF782FAA5
:10468000204670BD70B50646EC480D46C068C0684F
:10469000C468201DFDF78EFA94F82800410705D55F
:1046A0002A463146204600F07CFA03E000F0FE0086
:1046B00084F828002046216ABDE8704008472DE9AB
:1046C000F0410646FEF7E9FFDC4C0546A06885424E
:1046D00014D24FF0FF3704E0C06839460068FFF796
:1046E000D1FFE06801680029F6D12169C4E903100F
:1046F000012030602846A560BDE8F0810020F8E781
:1047000070B586B0CD4E6AE00098002806DADDE983
:104710000201019A90470098002860DB029C6069C2
:1047200010B1201DFDF746FA04A8FFF7C8FF0546A3
:1047300000980A2853D2DFE800F0520505292F46D9
:104740000505292F94F828002A4640F0010084F836
:1047500028000198A169034601442046FFF778FF2D
:1047600000283CD094F82800410707D50198A1699A
:104770002A460144204600F014FA03E000F0FE004F
:1047800084F82800216A2046884728E014F8280F7A
:1047900000F0FE00207022E094F8280040F00100B4
:1047A00084F828000198A06128B940F25932A4A1E8
:1047B000ACA001F0E5FBA0692B4641191A46204642
:1047C000FFF746FF0BE094F82800810703D420464A
:1047D00000F0C8FA03E000F0FE0084F82800002290
:1047E00069463068FDF740FE00288DD106B070BDE7
:1047F000924CE068016841B1C0680021D0F8000027
:1048000000F0E3F9FFF77CFFF3E701210020F7E771
:1048100038B500F0EFFB894C2068C8B99548FDF722
:1048200097F994481430FDF793F99248E0601430FA
:104830002061904B0020A43B009003F15402102112
:104840000520FDF71EFA206010B18BA1FEF759F884
:10485000BDE8384000F0E8BB30B587B00024FFF772
:10486000D7FF764D2868B0B100200390049005AAC8
:1048700004A903A801F08AFADDE903211F208DE8CD
:10488000070000237EA18048059AFEF7D3F96860EF
:1048900008B1012405E040F2191269A171A001F0EC
:1048A0006FFB07B0204630BD2DE9F0471E46DDE91D
:1048B000089417460D00804605D140F26B1260A1A6
:1048C00068A001F05DFBFFF7A3FF04F11801C4F835
:1048D000008081E86002201DFDF745F9002F04D01B
:1048E00014F8280F40F004002070BDE8F0872DE98F
:1048F000FC4781461E46174688462C200A9D00F03C
:10490000BDF904000AD0002084F82800CDE9005445
:1049100033463A4641464846FFF7C6FF2046BDE8C3
:10492000FC877CB52C26DDE90654009644B10226AE
:1049300084F82860CDE90054FFF7B6FF20467CBD1F
:104940004FF4A8723EA147A001F01AFBF6E72DE94B
:10495000FF479946DDF830A090460E4607004FF01D
:10496000000405D140F28B1235A13EA001F008FBF6
:10497000324D286880B1CDE900680297062E10DA22
:10498000FFF704FA02284FF0000308D0002269461E
:104990002868FDF779FA0446204604B0A5E7524698
:1049A000F5E700234A466946FDF77DFCF3E710B5BD
:1049B000224C606828B940F2B51221A129A001F06B
:1049C000DFFA606810BD10B5040005D14FF4DF7246
:1049D0001BA124A001F0D4FAA06910BD70B50D464A
:1049E000040005D14FF4E47215A11EA001F0C8FA2D
:1049F00000F000FB14F8280F15B140F0040001E0AE
:104A000000F0FB002070BDE8704000F00DBB10B559
:104A1000040005D140F2DD1209A112A001F0B0FAA4
:104A200000F0E8FA94F82800400701D4002400E0E0
:104A3000012400F0F9FA204610BD00005C000020BF
:104A40002E2E5C4D6964646C6577617265735C469B
:104A500072656552544F535C74696D6572732E6351
:104A6000000000004572726F723A2025732C2025D9
:104A7000640D0A0074050020546D7251000000009E
:104A8000546D722053766300F147000810B504009E
:104A900007D14FF4FB72AFF25801AFF2380001F0CA
:104AA0006FFA6068C8E710B5040007D14FF40072D0
:104AB000AFF27401AFF2540001F062FA2068BBE774
:104AC00010B5040007D14FF47672AFF28C01AFF24B
:104AD0006C0001F055FA00F08DFA94F82800C00738
:104AE00004D0012400F0A0FA2046A5E70024F9E74D
:104AF00010B5040007D140F2F132AFF2BC01AFF2C1
:104B00009C0001F03DFA00F075FAE46900F08CFABF
:104B1000204691E770B50D46040007D140F20242ED
:104B2000AFF2E401AFF2C40001F02AFA00F062FA39
:104B3000E561BDE8704000F077BA1FB51C466FF024
:104B40000103CDE90030CDE90212384800232246A6
:104B500069460068FDF7A7FB04B06DE72DE9FF414A
:104B6000324C07469846206815460E4638B940F242
:104B70003442AFF23411AFF2141001F001FA4FF0E9
:104B8000FF30CDE90007CDE90265002342466946C2
:104B90002068FDF779F904B0AEE5406A70474162DC
:104BA000704770B516460C46054604E0A869296AA8
:104BB000044428468847A8692346011932462846F6
:104BC000FFF746FD0028F1D170BDF8B50D46064649
:104BD000FEF784FA6846FFF772FD0446009810B1AC
:104BE000FEF7ABF9F8BD1148ADB101690968D9B15B
:104BF0000025311B2A460068FDF7C7FEFEF79DF928
:104C00000028EFD10A494FF080500860BFF34F8F62
:104C1000BFF36F8FF8BDA642EBD8FEF78EF92146A1
:104C20003046FFF72FFDF8BD0125E2E75C000020CC
:104C300004ED00E030B5934900E011460A68824275
:104C4000FBD34B685C18844203D140681844486029
:104C5000084643681C18944209D18A4C183C2468C1
:104C6000A24209D052681A4442600A68126802607F
:104C7000814200D0086030BD0460F9E72DE9F041C1
:104C800005460026FEF72AFA7E4F183F386808B915
:104C900000F0D7F87869054257D1002D55D005F1BD
:104CA0000804AC4251D960070ED004F00700C0F1EF
:104CB00008002044A04248D90446400704D09C2262
:104CC00071A17EA001F05CF9002C3ED0786884428E
:104CD0003BD86C4801460D6801E028460D466968DE
:104CE000A14202D229680029F7D13968B8468D421D
:104CF0002BD006682968016068680836001B1028F8
:104D00000ED92F19780704D0CF225FA16BA001F034
:104D100037F96868001B786038466C60FFF78AFFD7
:104D20006A68D8F804104046891AC8F80410D8F800
:104D30000830994200D2816041690A430021C5E9E7
:104D40000012C168491CC8F80C10FEF7F6F870078D
:104D500005D04FF488724CA158A001F011F93046EB
:104D6000BDE8F08170B500282ED0464DA0F10804B2
:104D7000183D60686969084205D14FF4927242A1FA
:104D80004EA001F0FDF8206828B140F225123EA1A6
:104D90004AA001F0F5F861686869014214D0226800
:104DA000002A11D181436160FEF798F96068696853
:104DB000084468602046FFF73DFF2869401C2861D1
:104DC000BDE87040FEF7B9B870BD2E48183840688D
:104DD00070472C4818388068704770472DE9F041BB
:104DE000002706463D467C1EFEF778F92548DFF889
:104DF00094800068A8F1180860B1D8F800204168D4
:104E00007F1CA94200D90D46A14200D20C46006881
:104E10009042F4D1FEF791F8F760C6E9015400F032
:104E2000E9F8D8F804103160D8F80C107161D8F89E
:104E30001010B161D8F808003061BDE8F04100F011
:104E4000F3B822484FF42051420706D0C01D1F4935
:104E500020F00700411AC1F520510A4A00230144FD
:104E6000C2E900030839183A21F0070111604B60CC
:104E70000B600B1AC0E9001393604FF000405360C1
:104E800050617047880000202E2E5C4D6964646C70
:104E90006577617265735C4672656552544F535C09
:104EA000706F727461626C655C4D656D4D616E67AB
:104EB0005C686561705F342E630000004572726F3C
:104EC000723A2025732C2025640D0A009C050020D1
:104ED0007A484068401C04D0CE2279A186A001F017
:104EE0004FF8502080F31188BFF34F8FBFF36F8FBF
:104EF000FEE710B5031F4FF080741C601B1F21F0EC
:104F000001011960191F804B0B60143940380A6089
:104F100010BD4FF0E0200021016181617B494FF419
:104F20007A720968B1FBF2F1491E41610721016102
:104F300070477CB5764D28780190FF20287028783E
:104F40008DF800009DF800009DF8001000F0F000C2
:104F5000884205D040F21F1259A167A001F010F855
:104F60009DF80000554C00F0500020700720A06014
:104F700006E000BF9DF8001049008DF80010401EAB
:104F80009DF800100906F5D4A06003280ED040F269
:104F900033124BA158A000F0F3FFA068032805D0FE
:104FA0004FF49E7246A154A000F0EAFF207A00025E
:104FB00000F4E060A060019828705648016841F450
:104FC00070010160016841F070410160FFF7A1FFCD
:104FD00000206060FBF7F8F800207CBD374840688F
:104FE000B0F57A7F05D040F2631235A142A000F0FF
:104FF000C7BF7047502080F31188BFF34F8FBFF3B6
:105000006F8F2E494868401C486001280BD14148E9
:105010001C38006810F0FF0F05D040F2731228A171
:1050200035A000F0ADBF704710B5244C606828B9BA
:105030004FF4BD7222A130A000F0A2FF6068401EB4
:10504000606001D180F3118810BD10B5502080F34D
:105050001188BFF34F8FBFF36F8FFDF7B6FE20B1FE
:105060002C494FF080501C390860002080F31188D3
:1050700010BD10B5FBF7DEF8104C10280CD300F172
:10508000E02090F8F0032178884205D240F2BB225C
:105090000BA119A000F074FF1E4814380068A16825
:1050A00000F4E060884207D9BDE8104040F2CB220E
:1050B00003A111A000F064BF10BD0000900000200B
:1050C0002E2E5C4D6964646C6577617265735C4615
:1050D00072656552544F535C706F727461626C6597
:1050E0005C525644535C41524D5F434D335C706F8C
:1050F00072742E63000000004572726F723A2025B0
:10510000732C2025640D0A00D14E0008B800002041
:1051100000E400E020ED00E07FB50C4605460121EB
:105120000220FBF7E5FCADF800400020ADF804508C
:10513000184CADF80600ADF8020069462046FBF7B2
:10514000B5FD012211462046FCF76EF81D208DF8B2
:105150000C000F208DF80D0001208DF80F0003A822
:10516000FBF791F801212046FCF749F87FBD10B507
:10517000084C01212046FCF76CFA002809D00121D7
:105180002046FCF772FA00F0D3F8BDE8104000F0BA
:105190003BB810BD0004004038B501210820FBF7E2
:1051A0009EFC10208DF803002020ADF800000320A5
:1051B000494C8DF8020069462046FBF7A6FA2021EB
:1051C0002046FBF710FB38BD44490A78904202D0D4
:1051D000087000204880704740494A78904202D0C9
:1051E000487000208880704720213B48FBF7FDBABB
:1051F00020213948FBF7F7BA08213948FBF7F5BAFF
:1052000008213748FBF7EFBA2DE9F041334C4FF452
:10521000FA77642620787D0058B3012826D002282A
:1052200004D003280DD0042816D024E06088401C48
:1052300080B2B0FBF5F105FB11006080B84215D3D8
:1052400017E06088401C80B2B0FBF6F106FB11004D
:10525000608032280AD30CE06088401C80B2B0FB2A
:10526000F5F105FB11006080642802D2FFF7BCFF56
:1052700001E0FFF7BDFF607848B301280FD0022896
:1052800010D0032819D0042824D1A088401C80B253
:10529000B0FBF5F105FB1100A080642817D2BDE832
:1052A000F041A9E7A088401C80B2B0FBF5F105FBF6
:1052B0001100A080B842F2D309E0A088401C80B25F
:1052C000B0FBF6F106FB1100A0803228E7D3BDE861
:1052D000F04195E7BDE8F081000C01409C00002002
:1052E0000018014008B501211C20FBF7F8FB4820FD
:1052F0008DF8030044F24000ADF8000003208DF863
:10530000020069465648FBF700FA08BD5549087A7D
:10531000002801D000220A72704710B54FF4804176
:105320004F48FBF74CFA08B1002010BD012010BD1A
:1053300070B54C4D4FF000042878401C10F0FF0071
:10534000287005D02C706878A870FFF7E6FF6870A9
:10535000E8780121E0B10222012833D002282AD1C5
:10536000E889401C80B2E881B0F5FA7F5CD86878A3
:1053700010B1A989491CA981A9891E291BD9012815
:1053800046D0022847D0032848D0042849D03BE023
:105390006C81AC81EC81687800280CD0AA78002A56
:1053A00009D1E970012807D0022807D0032807D0C7
:1053B000042800D1E97170BD297170BD697170BD9B
:1053C000A97170BD687808B3698940F2DC52491C44
:1053D00089B269819142F4D3012806D0022808D00D
:1053E00003280AD004280CD00EE0032028722C7168
:1053F0000AE0062028726C7106E009202872AC7160
:1054000002E00C202872EC71EC7070BDEA7070BD87
:105410002C712A72F8E76C71052016E0AC71082037
:1054200013E0EC710B2010E068891E28EFD9287971
:1054300001280CD0687901280CD0A87901280CD05B
:10544000E8790128E0D1EC710A202872DCE72C71A0
:105450002972D9E76C710420F7E7AC710720F4E7F3
:10546000000C0140A200002008B501210420FBF738
:1054700036FB10208DF803003020ADF8000003202B
:105480008DF8020069461048FBF73FF900F01EF85E
:1054900008BD70B50C4D04004FF01001284607D42C
:1054A000FBF7A1F920212846FBF79FF9A0B207E0FE
:1054B000FBF79BF920212846FBF795F9604280B263
:1054C000BDE8704000F046B80008014030B5012149
:1054D00089B00846FBF70CFB01210420FBF7FFFA1B
:1054E00018208DF81F000220ADF81C0003208DF855
:1054F0001E0007A91A48FBF708F94FF08045284617
:10550000FBF7A8FE0024ADF816406320ADF81400A8
:10551000ADF812402320ADF810008DF8184004A912
:105520002846FBF7C3FB6846FBF74EFE6020ADF84C
:1055300000000120ADF80200ADF80840ADF80640CB
:1055400069462846FBF720FC01212846FBF757FE59
:1055500009B030BD01464FF08040FCF754B8000060
:105560000008014008B501210420FBF7B8FA4020EB
:10557000ADF8000000208DF8030069461148FBF7E4
:10558000C4F800F0BFF808BD70B500242546062019
:1055900000F0F1F804440520FCF73CFA6D1CEDB274
:1055A0000A2DF4D30A20B4FBF0F04FF47A6188425C
:1055B00000D908462821B0FBF1F0C0F16400C0B268
:1055C00070BD00000008014010B586B001214FF405
:1055D0000170FBF784FA4FF40040FBF716FA714CA8
:1055E0002046FAF7A3FE00214FF46020CDE9020126
:1055F0008DF80410012000918DF805108DF8100031
:1056000069462046FAF7AEFE0120FAF7F3FF0121C2
:105610002046FAF7CFFE2046FAF7E9FE2046FAF7D1
:10562000EBFE0028FAD12046FAF7EDFE2046FAF705
:10563000EFFE0028FAD106B010BD10B5594C014656
:10564000072301222046FAF70DFF01212046FAF731
:10565000E6FE02212046FAF7D9FF0028F9D02046BD
:10566000BDE81040FAF742BF70B50024254610206F
:10567000FFF7E3FF204484B20520FCF7CBF96D1C53
:10568000EDB20A2DF3D30A20B4FBF0F070BD2DE982
:10569000F04100250E4607462C4608E03846FFF745
:1056A000CCFF05440520FCF7B5F9641CE4B2B44214
:1056B000F4D3B5FBF6F080B2BDE8F08110B514214B
:1056C0001020FFF7E4FF01F03FFC01F0A9FB4FF0D1
:1056D0006632354B01F0BCF902460B46334834497B
:1056E00001F0B4FA334A344B01F02AF80022334B6C
:1056F00000F07EFF0022324B01F0AAF901F078F9A8
:1057000000B210BD10B501214C0286B02046FBF757
:10571000E6F901212046FBF7F4F900212046FBF7CA
:10572000F0F9204C2046FAF701FE00214FF46020EA
:10573000CDE902018DF80410012000918DF80510CB
:105740008DF8100069462046FAF70CFE012120462C
:10575000FAF730FE2046FAF74AFE2046FAF74CFEEA
:105760000028FAD12046FAF74EFE2046FAF750FEFE
:105770000028FAD15FE710B50A4C01460723012241
:105780002046FAF76FFE01212046FAF748FE022173
:105790002046FAF73BFF0028F9D02046BDE810402C
:1057A000FAF7A4BE0024014066664A3FE17A14AECF
:1057B00047E1F63F22FDF675E09C713F000039405D
:1057C0000000594070B50C46054600F001F9712003
:1057D00000F08CF900F01DF901280ED100F0B8F8A6
:1057E000012070BD012C01D9012000E0002000F053
:1057F000A7F9641E05F8010BE4B2002CF2D100F009
:10580000A7F8002070BD08B501216846FFF7DAFF50
:105810009DF8000008BD10B5FFF7F5FF000701D5A2
:10582000002010BD012010BD70B515460E4604467F
:1058300000F0CEF8702000F059F900F0EAF80128E5
:1058400017D0204600F052F900F0E3F8012810D0FC
:10585000002408E0305D00F049F900F0DAF8012892
:1058600007D0641CA4B2AC42F4D300F071F800205D
:1058700070BD00F06DF8012070BD08B52FA0006864
:10588000009000F081F82820FCF7C4F80222694655
:10589000BE20FFF7C9FF4FF4FA70FCF7BBF8FFF723
:1058A000BAFF08BD7FB5044625A00D4600680390E9
:1058B000022203A9AC20FFF7B7FF5020FCF7AAF89B
:1058C00007216846FFF77EFF9DF80000000633D4ED
:1058D0009DF801009DF802109DF8032041EA002187
:1058E00042EA0122100901F02FFB164901F040FBAA
:1058F0006FF00906314601F0AEFC314601F0ABFC19
:1059000028609DF803009DF8041041EA0021080278
:105910009DF805100143C1F3130001F015FB0A497E
:1059200001F026FB314601F096FC314601F093FC74
:10593000064901F0E9FB20607FBD0000080000007F
:10594000330000000000C842000048430000484205
:1059500010B5914C002208212046FAF748FF02209A
:10596000FCF740F8012204212046FAF740FF02200C
:10597000FCF738F8012208212046FAF738FFBDE885
:1059800010400220FCF72EB838B501210420FBF7A7
:10599000A6F801210420FBF7A2F80420ADF80000CE
:1059A00010208DF8030003207B4C8DF8020069461F
:1059B0002046FAF7AAFE0820ADF8000014208DF862
:1059C000030069462046FAF7A0FEFFF7C1FF38BD85
:1059D00010B5714C012208212046FAF708FF012278
:1059E00004212046FAF703FF0220FBF7FBFF002209
:1059F00008212046FAF7FBFE0220FBF7F3FF002206
:105A000004212046FAF7F3FEBDE810400220FBF720
:105A1000E9BF70B5604E00242546012208213046BA
:105A2000FAF7E5FE0220FBF7DDFF012204213046F4
:105A3000FAF7DDFE0220FBF7D5FF07E0641CE4B2B5
:105A4000FA2C03D9FFF784FF012505E00821304631
:105A5000FAF7B5FE0028F1D1002204213046FAF70A
:105A6000C6FE0220FBF7BEFF284670BD10B54A4CAB
:105A7000002208212046FAF7BAFE0220FBF7B2FF07
:105A8000012204212046FAF7B2FE0220FBF7AAFF0A
:105A9000002204212046FAF7AAFE0220FBF7A2FF0B
:105AA000012208212046FAF7A2FEBDE8104002209C
:105AB000FBF798BF10B5384C012208212046FAF7B1
:105AC00096FE0220FBF78EFF012204212046FAF702
:105AD0008EFE0220FBF786FF002204212046FAF703
